:020000040000FA
:10000000372800000000000080310B1D0900063079
:100010000B1120009500DA0ADB0ADC0ADD0ADE0A91
:100020005F14201403305A02031C1828DA016400FC
:1000300005305B02031C2128DB01A01421002014E1
:1000400020000A305C02031C2828DC014014311413
:1000500064305D02031C2F28DD018C127914FA3004
:100060005E02031C0900DE014B144E1409008801D6
:10007000FA01FC01203084000030850041304C2022
:10008000A03084000030850012304C2020008B13FB
:1000900052208B178C16702D640080010131890B62
:1000A0004D2800347E20832093209F20A620B62058
:1000B000C320D720DC20E6205D28621C0800E2185F
:1000C0006528E21D682870280800621D78287B28B2
:1000D0000D300725E300C5306302031C08006528C6
:1000E0000D300725E300C0306302031C08006528BB
:1000F0000230D40008000130D40008007A3021001A
:1001000099009A01080020008C011B3021008C000E
:10011000133023008C0020008E01033021008E005C
:1001200023008E010800D330210095000630200006
:10013000950020308B000830210097000800013026
:100140009D0050309E009B019C0108002000DA01B8
:10015000DB01DC01DD01DE01D4015610D6105611A1
:10016000D6115612D6125613D70108004010C101FD
:100170007F23C501C60147142A244B10CB10CC01A4
:10018000CD015F10B12C31103314BE01BF0120101E
:10019000A0102210AD01AE01AF01B001210020106E
:1001A0002210AD01AE01AF01B001B101080079101C
:1001B000FA017B10FC01080020004E10CE10CF0188
:1001C000D0015110D110D201D3010800230080309A
:1001D0009100073092001513151400000000130859
:1001E0002000E200103062020318E20108008B13C5
:1001F00023001515151395128030910007309200D9
:1002000020006208230093000030940055309600CF
:10021000AA309600951400000000151120008B17DD
:1002200008008B13230080309100073092001513D3
:100230001516151555309600AA3096009514000035
:100240000000151120008B170800311C0800311028
:1002500001300725B200B8217B1808002F29561D50
:10026000532900303D028C3003193C0203185129F8
:1002700000303D025B3003193C02031C512932302F
:10028000BF0ABE013F02031C0800BF01D61054087C
:1002900003194C29B5234D29CB10043033145611C2
:1002A0003B2CBF01080054080319080000303D0230
:1002B000963003193C0203186B2900303D024A3086
:1002C00003193C020318752900303D020B30031955
:1002D0003C02031C75293230BE0ABF013E02031CDA
:1002E0000800BE0104305615B32CBE010800221CC4
:1002F0008629F2017208233E8600870121088100C9
:100300000830F20A7202031C7A2922100730F40026
:100310007408233E860087017408223E840085010C
:1003200000088100F40B88292108A300AB01AC016F
:10033000F3017308233E860087010108AB07031809
:10034000AC0A0830F30A7302031C99290B30203ED3
:100350008600403FF000413FF100F136F00CF136ED
:10036000F00CF136F00C7008AB007108AC0008001E
:10037000331CC729F2017208343E86008701320817
:1003800081000830F20A7202031CBB2933100730C7
:10039000F4007408343E860087017408333E8400FC
:1003A000850100088100F40BC9293208B400BC01A2
:1003B000BD01F3017308343E860087010108BC07C4
:1003C0000318BD0A0830F30A7302031CDA290B3044
:1003D000313E8600403FF000413FF100F136F00C25
:1003E000F136F00CF136F00C7008BC007108BD005D
:1003F000080054080319592A053007252100A100D7
:100400004C302102031C0F2A0A30AF0A2F02031CB2
:10041000102AAF01200056160730B324102AAF016E
:100420002100201C0800201020005618552A210009
:10043000AF08031D552A20000E1D272AE2222000A6
:100440003D082100AE0020003C082100AD00063030
:10045000F000F10121002E08F3002D08F2005E22C9
:100460007008033EF7000030713D2C02031D3A2A4C
:1004700077082B020318502A2000D61C502A21008E
:10048000B00A0319B10A0C3031028030031930026E
:10049000031C0800B001B10120000630D616B32CB1
:1004A0002000D61C0E1D552AD6142100B001B10122
:1004B00008002100AF01B001B1010800F401F5010D
:1004C0007108700403197E2AF601F60AF11B6B2AE3
:1004D000F035F10D652AF435F50D71087302031D31
:1004E000732A70087202031C7A2A7008F2027108DB
:1004F000F33B7414F136F00CF60B6B2A7508F1001F
:100500007408F000080054080319982A0D300725D4
:10051000A100363021020318962A0A30AD0A2D02B6
:10052000031C08000730AD015616B32CAD019E2AFE
:100530006430AD01AE01AF01B0000800A01C08009E
:10054000A010540803190800772100302C02F9305C
:1005500003192B02031CBC2AAE0A0319AF0A25306B
:100560002F02803003192E02031CBE2A0630AE0172
:10057000AF01D616B324BE2AAE01AF01D61A0800C9
:100580006430B00A3002031C0800B001540BD32AB7
:1005900000302C02763003192B020318A72C0030F0
:1005A0002C026D30AA2C5408023A031DB12C0030E5
:1005B0002C02843003192B020318A72C00302C02C4
:1005C0007B30AA2C2100221CF22AF2017208A33EE1
:1005D00086008701210881000830F20A7202031C9C
:1005E000E62A22100730F4007408A33E8600870133
:1005F0007408A23E8400850100088100F40BF42AEF
:1006000021002108A300AB01AC01F3017308A33E54
:10061000860087010108AB070318AC0A0830F30A0B
:100620007302031C062B0B30A03E8600403FF000F7
:10063000413FF100F136F00CF136F00CF136F00CE0
:100640007008AB007108AC000800440B282B752320
:100650004408023A031D302B0230F00000304123E1
:100660004408033A031D352B57234408063A031D5B
:100670003A2B65234408073A03190E180800C401F1
:100680000800F10000300E1801307106031D512BD7
:100690007B23013046022C3003194502031C08005D
:1006A0007F2BC501C6017B23700AC40008000E1C05
:1006B0007F2B7B2300304602963003194502031C32
:1006C00008007F230630C40008000E1C7F2B7B230C
:1006D000013046022C3003194502031C0800C501F5
:1006E000C6017B140730C40008000E1808007B23E5
:1006F0000230C4000800C50A0319C60A0800C50173
:10070000C601C4010800C108031D8C2B0E1C892BD7
:100710009D2BC201C3010800410B912B0E1C9A2B8B
:10072000D82B4108023A031D982B0E1C9A2BF02B54
:100730000E1808008923C1010800EC230030430291
:10074000043003194202031C080047187B18B22B1F
:100750000330D40AD61054020318B02BB523B22BA1
:10076000D401CB10C101C10A0800540BCC2B2214B8
:10077000210022142000CB14CE14511CC82BA03011
:100780005110D201D301D114CF001430D000080091
:10079000D110CF01D0010800221421002214200022
:1007A000CB14CE10D11CC92B5114D201D301C92BAB
:1007B000EC2300304302963003194202031C080068
:1007C00047187B18E92BD401D610CB10CE10CF01DF
:1007D000D0010230C1000800C20A0319C30A080090
:1007E000EC23013043022C3003194202031C0800A1
:1007F0008923C408031DFE2BC401C40A0330C100B1
:100800000800D6192E2C8E1C1D2CC80A0319C90AE3
:100810000030CA014902043003194802031C0800D1
:100820000B3056144902B83003194802031C080063
:10083000053027245610D615B32C561C2A2C04300C
:10084000CA0A4A02031C08002A2456100800C801DC
:10085000C9010800C801C901CA0108008E18392C55
:100860000430CA0A4A02031C08000530CA01D61126
:100870003B2CCA010800F000561DD619442CD61E88
:10088000561A442C561F47147008053A031D4D2C68
:100890005708023A031D4C2CD7037008043A031979
:1008A000D7030800FC1C5C24FA0A40307A020318C3
:1008B000A12C0E18602C7B2C0130E200FC147D2C46
:1008C0007C1864247C107D2C7C15FA01621C712C30
:1008D000E21D732CE21C752C621D772C0030E200A7
:1008E000080062140800E2150800E2140800E21192
:1008F000E210621508007C147D2C621C8A2C7C1985
:100900008A2C8524621D9D2C9F2CE21808009224BD
:1009100003188E24922403188E24CF2C0430FC0656
:10092000FD010800E21D952C992CFD0A06307D0280
:100930000800FD0A03307D020800DA24DD2CE024E3
:10094000D72CFA01FC01FD017B101121F7280230A0
:10095000E000080003192B02CB10B1240318E00AB1
:100960000800E0010800F0000230D401D610CF24C6
:100970000525B1244710CB10570203180800D70AE9
:10098000F101F10A7108583E860087017108573E4F
:100990008400850100088100F10BC22C08002000B2
:1009A0008E128E11080020008E168E150800200071
:1009B0008E16080020008E15080020008E120800F8
:1009C00020008E11080020005F1C08005F107B18BB
:1009D0000800540BEC2CD32C5408023ADD24031DE0
:1009E000E02CDA2C5618052D54080319052D600843
:1009F000023A031DFC2C032D600B052D47303002FD
:100A0000031C032D052D0E1508000E1108002100F2
:100A10009D00000000000000000000000000000039
:100A200000009D149D1C162D0000122D1C08200096
:100A30000800401C232D40107B18202D0124212D5F
:100A400027248323252325253C2D4B1C08004B10F0
:100A5000CB1C392DCC0A0319CD0A25304D0280302C
:100A600003194C02031C08000830CC01CD015617B5
:100A7000B32CCC01CD0108004E1C08004E105408C8
:100A800003195D2DCE1C5E2DCF0A0319D00A1C3030
:100A90005002203003194F02031C602DCF01D001FA
:100AA000CE10D40AD6102214210022142000CB1418
:100AB0005114D201D301D110602DCE10CF01D0013D
:100AC000511C0800D20A0319D30A04305302B03073
:100AD00003195202031C08005110D201D30108006F
:100AE00019257C257425702DE324F224791C080037
:100AF00079107B1C0800522C25218C1E201C08001C
:060B000020108322F929F8
:040B06000034003483
:020000040001F9
:02000E00BC3FF5
:02001000FF1DD2
:00000001FF
